S02400004F4E44454D414E445F545241464649434C494748545F53595354454D2E73726563A0
S11300000C9432000C94F6050C941F060C944806CC
S11300100C9444000C9444000C9444000C9444004C
S11300200C9444000C9444000C9444000C9444003C
S11300300C9444000C9444000C9444000C9444002C
S11300400C9444000C9444000C9444000C9444001C
S11300500C9444005F0764076A07710777077D07FC
S113006084078A0711241FBECFE5D8E0DEBFCDBFC9
S113007020E0A0E6B0E001C01D92A636B207E1F789
S11300800E94A7030C943F0A0C940000CF93DF93C3
S113009000D0CDB7DEB760E081E40E948B0361E05D
S11300A081E40E948B0362E081E40E948B0360E0A0
S11300B082E40E948B0361E082E40E948B0362E08D
S11300C082E40E948B0362E084E40E94260262E0E0
S11300D081E40E94910380E491E00E94F1058FB7CE
S11300E080688FBF198283E08A83CE0101960E94C3
S11300F088050F900F90DF91CF910895CF92DF92F2
S1130100EF92FF926B017C0114C060E070E080E02C
S11301109FE30E942C0261E081E40E949D0320E0A1
S113012030E040E05FE3C701B6010E94AA076B011B
S11301307C0120E030E040E05FE3C701B6010E94AB
S1130140C709181614F3C701B6010E942C02FF90C8
S1130150EF90DF90CF90089560E070E080EA90E443
S11301600E942C0262E081E40E94970361E081E432
S11301700E94910360E070E080EA90E40E947E00B7
S113018061E081E40E94970360E081E40E949103AE
S113019060E070E080EA90E40E942C0260E081E478
S11301A00E94970361E081E40E94910360E070E0A3
S11301B080EA90E40E947E0061E081E40E9497035B
S11301C062E081E40E949103C7CFCF92DF92EF9265
S11301D0FF926B017C0118C060E070E080E09FE357
S11301E00E942C0261E081E40E949D0361E082E4AC
S11301F00E949D0320E030E040E05FE3C701B601C8
S11302000E94AA076B017C0120E030E040E05FE33C
S1130210C701B6010E94C7091816F4F2C701B60156
S11302200E942C02FF90EF90DF90CF900895CF931F
S1130230DF93EC01AC0160E081E40E94A2038881B9
S1130240813011F4188219C0AE0161E081E40E948A
S1130250A2038881813011F488830AC0AE0162E070
S113026081E40E94A2038881813011F482E08883B2
S11302708881811102C081E08883DF91CF91089544
S1130280CF93DF931F92CDB7DEB71982CE010196CB
S11302900E9417018981813009F474C090F0823082
S11302A009F0D0C060E082E40E94910360E070E055
S11302B080EA90E40E942C0260E082E40E949703AA
S11302C0C1C061E081E40E94910362E082E40E9483
S11302D0910361E082E40E94910360E070E080EAAF
S11302E090E40E94E50060E081E40E94970362E0EC
S11302F081E40E94910361E081E40E94970362E03B
S113030082E40E94970360E082E40E94910361E02A
S113031082E40E94970360E070E080EA90E40E9427
S11303202C0262E081E40E94970361E081E40E9470
S1130330910361E082E40E94910360E070E080EA4E
S113034090E40E94E50060E082E40E94970362E08A
S113035082E40E94910361E082E40E94970360E0DA
S113036081E40E94910361E081E40E94970360E0CC
S113037070E080EA90E40E942C0262E082E40E9431
S1130380970360C061E081E40E94910362E082E42B
S11303900E94910361E082E40E94910360E070E0B6
S11303A080EA90E40E94E50062E081E40E94910307
S11303B061E081E40E94970362E082E40E94970373
S11303C060E082E40E94910361E082E40E9497036A
S11303D060E070E080EA90E40E942C0262E081E434
S11303E00E94970361E081E40E94910361E082E44A
S11303F00E94910360E070E080EA90E40E94E500CE
S113040060E082E40E94970362E082E40E94910328
S113041061E082E40E94970360E081E40E9491031A
S113042061E081E40E94970360E070E080EA90E478
S11304300E942C0262E082E40E94970360E081E45F
S11304400E9497030F90DF91CF91089540E00E949E
S1130450AE03811181E00895CF92DF92EF92FF9273
S1130460CF93DF93CDB7DEB764970FB6F894DEBFB2
S11304700FBECDBF6B017C0180E492E4AFE0B0E03D
S113048089839A83AB83BC8369817A818B819C81C4
S11304900E94D4089B01AC0160E070E080E89FE317
S11304A00E9433086D837E838F83988788B7846026
S11304B088BF81E08D871B8A1A8A1E862DEB37E35D
S11304C046E851E4C701B6010E94C70918163CF575
S11304D087E08F876D817E818F81988520E030E071
S11304E040E854E40E94CC0969877A878B879C870B
S11304F029853A854B855C85C701B6010E9433087E
S11305009B01AC0160E070E080E897E40E94AA07D8
S11305100E9417080E94A508798B688BDBC02DEB1D
S113052037E346E850E4C701B6010E94C70918162C
S11305308CF52DEB37E346E851E4C701B6010E9480
S11305402E0888233CF586E08F876D817E818F811C
S1130550988520E030E040E853E40E94CC096987A4
S11305607A878B879C8729853A854B855C85C7016B
S1130570B6010E9433089B01AC0160E070E080E8A2
S113058097E40E94AA070E9417080E94A508798B85
S1130590688BA0C02DEB37E346E05FE3C701B601EB
S11305A00E94C70918168CF52DEB37E346E850E492
S11305B0C701B6010E942E0888233CF584E08F878A
S11305C06D817E818F81988520E030E040E852E49F
S11305D00E94CC0969877A878B879C8729853A850D
S11305E04B855C85C701B6010E9433089B01AC01B1
S11305F060E070E080E897E40E94AA070E94170870
S11306000E94A508798B688B65C02DEB37E346E81B
S11306105DE3C701B6010E94C70918168CF52DEBDE
S113062037E346E05FE3C701B6010E942E08882342
S11306303CF582E08F876D817E818F81988520E0F3
S113064030E040E051E40E94CC0969877A878B87C7
S11306509C8729853A854B855C85C701B6010E9434
S113066033089B01AC0160E070E080E897E40E94ED
S1130670AA070E9417080E94A508798B688B2AC0D4
S11306802DEB37E346E85DE3C701B6010E942E086F
S1130690181604F181E08F878D819E81AF81B88522
S11306A089879A87AB87BC8729853A854B855C8582
S11306B0C701B6010E9433089B01AC0160E070E001
S11306C080E897E40E94AA070E9417080E94A508E0
S11306D0798B688B1C8ACE010D960E947B06882339
S11306E031F081E00BC0CE0144960E9471068C89E2
S11306F08823C9F381E00E949D0780E064960FB6C9
S1130700F894DEBF0FBECDBFDF91CF91FF90EF9085
S1130710DF90CF90089541E00E94AE03811181E003
S1130720089541E00E94B204811181E0089540E0FF
S11307300E94B204811181E008950E94470581114D
S113074081E008950E944304811181E008950E948C
S113075046000E94AC0080E090E00895693008F003
S113076084C0423008F083C0823441F118F48134EB
S113077041F07FC0833409F43EC0843409F458C086
S113078078C0413061F42AB381E090E002C0880F60
S1130790991F6A95E2F7822B8ABB80E00895411184
S11307A06AC02AB381E090E002C0880F991F6A955D
S11307B0E2F7809582238ABB80E00895413061F49A
S11307C027B381E090E002C0880F991F6A95E2F791
S11307D0822B87BB80E0089541114FC027B381E08D
S11307E090E002C0880F991F6A95E2F780958223F2
S11307F087BB80E00895413061F424B381E090E048
S113080002C0880F991F6A95E2F7822B84BB80E0AF
S113081008954130A1F524B381E090E002C0880F2F
S1130820991F6A95E2F78095822384BB80E008953E
S1130830413061F421B381E090E002C0880F991F38
S11308406A95E2F7822B81BB80E00895411119C0BB
S113085021B381E090E002C0880F991F6A95E2F706
S11308608095822381BB80E0089582E0089583E02F
S1130870089581E0089580E0089580E0089580E07F
S1130880089580E00895693008F068C0823409F161
S113089018F4813439F064C0833491F1843409F458
S11308A046C05EC079B381E090E09C01062E02C090
S11308B0220F331F0A94E2F7872F90E082239323B9
S11308C002C0959587956A95E2F7FA01808380E0E6
S11308D0089576B381E090E09C01062E02C0220FB9
S11308E0331F0A94E2F7872F90E08223932302C0F8
S11308F0959587956A95E2F7FA01808380E00895DB
S113090073B381E090E09C01062E02C0220F331FD6
S11309100A94E2F7872F90E08223932302C09595EF
S113092087956A95E2F7FA01808380E0089570B3B1
S113093081E090E09C01062E02C0220F331F0A942E
S1130940E2F7872F90E08223932302C09595879541
S11309506A95E2F7FA01808380E0089582E00895C1
S113096081E00895693008F084C0423008F083C003
S1130970823441F118F4813441F07FC0833409F4A6
S11309803EC0843409F458C078C0413061F42BB3BC
S113099081E090E002C0880F991F6A95E2F7822BEC
S11309A08BBB80E0089541116AC02BB381E090E0D5
S11309B002C0880F991F6A95E2F7809582238BBB4A
S11309C080E00895413061F428B381E090E002C0F2
S11309D0880F991F6A95E2F7822B88BB80E00895FF
S11309E041114FC028B381E090E002C0880F991FE5
S11309F06A95E2F78095822388BB80E008954130B0
S1130A0061F425B381E090E002C0880F991F6A95D4
S1130A10E2F7822B85BB80E00895411134C025B3F1
S1130A2081E090E002C0880F991F6A95E2F78095F3
S1130A30822385BB80E00895413061F422B381E0D4
S1130A4090E002C0880F991F6A95E2F7822B82BB5F
S1130A5080E00895411119C022B381E090E002C002
S1130A60880F991F6A95E2F78095822382BB80E004
S1130A70089582E0089583E0089581E0089580E078
S1130A80089580E0089580E0089580E00895693035
S1130A90D8F58234A9F018F4813431F037C08334A6
S1130AA0D9F0843429F132C02BB381E090E002C044
S1130AB0880F991F6A95E2F782278BBB80E008951F
S1130AC028B381E090E002C0880F991F6A95E2F78D
S1130AD0822788BB80E0089525B381E090E002C0BE
S1130AE0880F991F6A95E2F7822785BB80E00895F5
S1130AF022B381E090E002C0880F991F6A95E2F763
S1130B00822782BB80E0089582E0089581E0089501
S1130B10FC019081913071F120F0923009F453C0BE
S1130B205AC08181813069F028F0823089F08330A5
S1130B30B1F053C085B78E7F85BF85B78D7F85BFE4
S1130B4014C085B7816085BF85B78D7F85BF0DC013
S1130B5085B78E7F85BF85B7826085BF06C085B7A0
S1130B60816085BF85B7826085BF8BB780648BBF8A
S1130B7080E008958181813069F028F0823089F025
S1130B808330B1F02CC085B78B7F85BF85B7877F55
S1130B9085BF14C085B7846085BF85B7877F85BF4F
S1130BA00DC085B78B7F85BF85B7886085BF06C0BC
S1130BB085B7846085BF85B7886085BF8BB780683B
S1130BC08BBF80E0089584B7806484BF8BB7806254
S1130BD08BBF80E0089581E0089582E0089582E06B
S1130BE00895909365008093640008951F920F9276
S1130BF00FB60F9211242F933F934F935F936F93EC
S1130C007F938F939F93AF93BF93EF93FF93E09161
S1130C106400F0916500309709F00995FF91EF9118
S1130C20BF91AF919F918F917F916F915F914F9100
S1130C303F912F910F900FBE0F901F9018951F9208
S1130C400F920FB60F9211242F933F934F935F93FC
S1130C506F937F938F939F93AF93BF93EF93FF9380
S1130C60E0916200F0916300309709F00995FF91DB
S1130C70EF91BF91AF919F918F917F916F915F9110
S1130C804F913F912F910F900FBE0F901F90189589
S1130C901F920F920FB60F9211242F933F934F93ED
S1130CA05F936F937F938F939F93AF93BF93EF93D0
S1130CB0FF93E0916000F0916100309709F009958D
S1130CC0FF91EF91BF91AF919F918F917F916F9120
S1130CD05F914F913F912F910F900FBE0F901F90F6
S1130CE0189508B602FE04C021E0FC012083089593
S1130CF0FC0110820895FC018081813009F457C001
S1130D0020F0823009F4B3C00AC18181813051F0EE
S1130D1028F0823061F0833079F003C183B7877B98
S1130D2083BF0DC083B78F7B886083BF08C083B740
S1130D308064877F83BF03C083B7886483BF838154
S1130D4082BF82818230C9F028F4882359F081302F
S1130D5071F0E9C08630F1F0873011F1843009F088
S1130D60E2C012C083B7887F83BF80E0089583B751
S1130D708160897F83BF80E0089583B78E7F82601E
S1130D808B7F83BF80E0089583B783608B7F83BFAD
S1130D9080E0089583B78C7F846083BF80E00895EA
S1130DA083B781608D7F846083BF80E008958181F3
S1130DB0813069F028F0823089F08330B9F0B5C011
S1130DC08FB58C7F8FBD8EB5877F8EBD16C08FB5D6
S1130DD08C7F8FBD8EB588608EBD0FC08FB581604E
S1130DE08D7F8FBD8EB588608EBD07C08FB5816045
S1130DF08D7F8FBD8EB5877F8EBD84818DBD8381B0
S1130E008CBD82818230C9F028F4882359F0813066
S1130E1071F08DC08630F1F0873011F1843009F023
S1130E2086C012C08EB5887F8EBD80E008958EB5D1
S1130E308160897F8EBD80E008958EB58E7F82604B
S1130E408B7F8EBD80E008958EB583608B7F8EBDD1
S1130E5080E008958EB58C7F84608EBD80E0089517
S1130E608EB581608D7F84608EBD80E00895818120
S1130E70813051F028F0823061F0833079F059C02C
S1130E8085B5877B85BD0DC085B58F7B886085BDA5
S1130E9008C085B58064877F85BD03C085B5886437
S1130EA085BD838184BDE2818E2F90E088309105D9
S1130EB008F041C0FC01E65DFF4F0C94390A85B58A
S1130EC0887F85BD80E0089585B58160897F85BD73
S1130ED080E0089585B58E7F82608B7F85BD80E03C
S1130EE0089585B583608B7F85BD80E0089585B5C1
S1130EF08C7F846085BD80E0089585B581608D7F99
S1130F00846085BD80E0089585B58E7F866085BD4B
S1130F1080E0089585B5876085BD83E0089580E00D
S1130F20089582E0089583E0089582E0089583E0BF
S1130F30089582E0089583E00895811102C013BEEC
S1130F400895813019F41FBC1EBC0895823009F441
S1130F5015BC08955058BB27AA270E94C2070C94B9
S1130F6075090E94670938F00E946E0920F039F46F
S1130F709F3F19F426F40C9464090EF4E095E7FB02
S1130F800C943509E92F0E94860958F3BA176207B1
S1130F9073078407950720F079F4A6F50C94C0092B
S1130FA00EF4E0950B2EBA2FA02D0B01B901900180
S1130FB00C01CA01A0011124FF27591B99F0593FC4
S1130FC050F4503E68F11A16F040A22F232F342F0C
S1130FD04427585FF3CF469537952795A795F0405A
S1130FE05395C9F77EF41F16BA0B620B730B840B6F
S1130FF0BAF09150A1F0FF0FBB1F661F771F881F27
S1131000C2F70EC0BA0F621F731F841F48F487957E
S113101077956795B795F7959E3F08F0B0CF939570
S1131020880F08F09927EE0F9795879508950E94E9
S1131030A80990F09F3748F4911116F40C94C10953
S113104060E070E080E89FE3089526F01B16611DC0
S1131050711D811D0C943B090C9456090E941109C1
S113106008F481E008950E9447080C9475090E94D1
S11310706E0958F00E94670940F029F45F3F29F097
S11310800C94350951110C94C1090C9464090E9403
S1131090860968F39923B1F3552391F3951B550BF6
S11310A0BB27AA2762177307840738F09F5F5F4F37
S11310B0220F331F441FAA1FA9F335D00E2E3AF076
S11310C0E0E832D091505040E695001CCAF72BD08E
S11310D0FE2F29D0660F771F881FBB1F26173707DF
S11310E04807AB07B0E809F0BB0B802DBF01FF2711
S11310F093585F4F3AF09E3F510578F00C943509B0
S11311000C94C1095F3FE4F3983ED4F38695779538
S11311106795B795F7959F5FC9F7880F911D9695C9
S1131120879597F90895E1E0660F771F881FBB1F25
S1131130621773078407BA0720F0621B730B840BD2
S1131140BA0BEE1F88F7E09508950E948E0988F087
S11311509F5798F0B92F9927B751B0F0E1F0660F77
S1131160771F881F991F1AF0BA95C9F714C0B130B8
S113117091F00E94C009B1E008950C94C009672F52
S1131180782F8827B85F39F0B93FCCF386957795E7
S11311906795B395D9F73EF49095809570956195D0
S11311A07F4F8F4F9F4F0895E89409C097FB3EF4FB
S11311B090958095709561957F4F8F4F9F4F9923A0
S11311C0A9F0F92F96E9BB279395F695879577951E
S11311D06795B795F111F8CFFAF4BB0F11F460FFDE
S11311E01BC06F5F7F4F8F4F9F4F16C0882311F036
S11311F096E911C0772321F09EE8872F762F05C04A
S1131200662371F096E8862F70E060E02AF09A95E4
S1131210660F771F881FDAF7880F9695879597F9D9
S11312200895990F0008550FAA0BE0E8FEEF161673
S11312301706E807F907C0F012161306E407F507C6
S113124098F0621B730B840B950B39F40A2661F03A
S1131250232B242B252B21F408950A2609F4A140DD
S1131260A6958FEF811D811D089597F99F6780E8EA
S113127070E060E00895882371F4772321F098509A
S1131280872B762F07C0662311F499270DC0905140
S1131290862B70E060E02AF09A95660F771F881F0E
S11312A0DAF7880F9695879597F908959F3F31F05F
S11312B0915020F4879577956795B795880F911D80
S11312C09695879597F908959FEF80EC08950024EB
S11312D00A941616170618060906089500240A9497
S11312E012161306140605060895092E0394000C1D
S11312F011F4882352F0BB0F40F4BF2B11F460FFAC
S113130004C06F5F7F4F8F4F9F4F089557FD9058D4
S1131310440F551F59F05F3F71F04795880F97FBB5
S1131320991F61F09F3F79F087950895121613066F
S11313301406551FF2CF4695F1DF08C0161617069E
S11313401806991FF1CF86957105610508940895D3
S11313500E948E09A0F0BEE7B91788F4BB279F3816
S113136060F41616B11D672F782F8827985FF7CF82
S1131370869577956795B11D93959639C8F3089529
S1131380E894BB2766277727CB0197F908950E9435
S1131390110908F48FEF08950E94DF090C94750970
S11313A00E94670938F00E946E0920F0952311F01D
S11313B00C9435090C94640911240C94C1090E94FD
S11313C0860970F3959FC1F3950F50E0551F629FF6
S11313D0F001729FBB27F00DB11D639FAA27F00D8A
S11313E0B11DAA1F649F6627B00DA11D661F829FB1
S11313F02227B00DA11D621F739FB00DA11D621F96
S1131400839FA00D611D221F749F3327A00D611DB2
S1131410231F849F600D211D822F762F6A2F112494
S11314209F5750409AF0F1F088234AF0EE0FFF1FC7
S1131430BB1F661F771F881F91505040A9F79E3F1E
S1131440510580F00C9435090C94C1095F3FE4F315
S1131450983ED4F3869577956795B795F795E79574
S11314609F5FC1F7FE2B880F911D9695879597F97D
S11314700895EE0FFF1F0590F491E02D0994F89460
S1051480FFCF98
S9030000FC
